:020000040000FA
:020000000A28CC
:10000800FE00030EC4000A08C50012280B28C6010A
:10001800C701C801C901CA0183017E280C1F6728CE
:100028000C139F140130C0004008CA071E08C00006
:10003800C101C201C3014008C607410803110318E2
:10004800013E031DC707420803110318013E031DA3
:10005800C807430803110318013E031DC907FE30F2
:100068004A06031D67284608C0004708C10048081B
:10007800C2004908C30004300310C30CC20CC10CF1
:10008800C00CFF3E031D40284308C9004208C800B1
:100098004108C7004008C6004608C0004708C1001C
:1000A8004808C2004908C30002300310C30CC20C40
:1000B800C10CC00CFF3E031D592840089800460893
:1000C80003399700CA0145088A00440E8300FE0ED2
:1000D8007E0E0900B101B9018614990138309200E9
:1000E800980197018C109310131013158610991707
:1000F8001917080097200611932086208E209A2031
:100108006E2085289F161F139F131F129F111F1102
:100118001F1408000C130D170B178B170800061473
:100128000814890108007030900008009F14080026
:02400E00A03CD4
:00000001FF
